{
  "_format": "hh-sol-artifact-1",
  "contractName": "HighPowerStaking",
  "sourceName": "contracts/HighPowerStaking.sol",
  "abi": [
    {
      "inputs": [
        {
          "internalType": "contract IERC20",
          "name": "_hgpTokenAddress",
          "type": "address"
        },
        {
          "internalType": "uint256",
          "name": "_initialRewardRate",
          "type": "uint256"
        }
      ],
      "stateMutability": "nonpayable",
      "type": "constructor"
    },
    {
      "anonymous": false,
      "inputs": [
        {
          "indexed": true,
          "internalType": "address",
          "name": "previousOwner",
          "type": "address"
        },
        {
          "indexed": true,
          "internalType": "address",
          "name": "newOwner",
          "type": "address"
        }
      ],
      "name": "OwnershipTransferred",
      "type": "event"
    },
    {
      "anonymous": false,
      "inputs": [
        {
          "indexed": false,
          "internalType": "uint256",
          "name": "oldRate",
          "type": "uint256"
        },
        {
          "indexed": false,
          "internalType": "uint256",
          "name": "newRate",
          "type": "uint256"
        }
      ],
      "name": "RewardRateUpdated",
      "type": "event"
    },
    {
      "anonymous": false,
      "inputs": [
        {
          "indexed": true,
          "internalType": "address",
          "name": "user",
          "type": "address"
        },
        {
          "indexed": false,
          "internalType": "uint256",
          "name": "amount",
          "type": "uint256"
        }
      ],
      "name": "RewardsClaimed",
      "type": "event"
    },
    {
      "anonymous": false,
      "inputs": [
        {
          "indexed": true,
          "internalType": "address",
          "name": "funder",
          "type": "address"
        },
        {
          "indexed": false,
          "internalType": "uint256",
          "name": "amount",
          "type": "uint256"
        }
      ],
      "name": "RewardsFunded",
      "type": "event"
    },
    {
      "anonymous": false,
      "inputs": [
        {
          "indexed": true,
          "internalType": "address",
          "name": "user",
          "type": "address"
        },
        {
          "indexed": false,
          "internalType": "uint256",
          "name": "amount",
          "type": "uint256"
        }
      ],
      "name": "Staked",
      "type": "event"
    },
    {
      "anonymous": false,
      "inputs": [
        {
          "indexed": true,
          "internalType": "address",
          "name": "user",
          "type": "address"
        },
        {
          "indexed": false,
          "internalType": "uint256",
          "name": "amount",
          "type": "uint256"
        }
      ],
      "name": "Unstaked",
      "type": "event"
    },
    {
      "inputs": [],
      "name": "claimRewards",
      "outputs": [],
      "stateMutability": "nonpayable",
      "type": "function"
    },
    {
      "inputs": [
        {
          "internalType": "address",
          "name": "user",
          "type": "address"
        }
      ],
      "name": "earned",
      "outputs": [
        {
          "internalType": "uint256",
          "name": "",
          "type": "uint256"
        }
      ],
      "stateMutability": "view",
      "type": "function"
    },
    {
      "inputs": [
        {
          "internalType": "uint256",
          "name": "amount",
          "type": "uint256"
        }
      ],
      "name": "fundRewards",
      "outputs": [],
      "stateMutability": "nonpayable",
      "type": "function"
    },
    {
      "inputs": [],
      "name": "hgpToken",
      "outputs": [
        {
          "internalType": "contract IERC20",
          "name": "",
          "type": "address"
        }
      ],
      "stateMutability": "view",
      "type": "function"
    },
    {
      "inputs": [],
      "name": "lastUpdateTime",
      "outputs": [
        {
          "internalType": "uint256",
          "name": "",
          "type": "uint256"
        }
      ],
      "stateMutability": "view",
      "type": "function"
    },
    {
      "inputs": [],
      "name": "owner",
      "outputs": [
        {
          "internalType": "address",
          "name": "",
          "type": "address"
        }
      ],
      "stateMutability": "view",
      "type": "function"
    },
    {
      "inputs": [],
      "name": "renounceOwnership",
      "outputs": [],
      "stateMutability": "nonpayable",
      "type": "function"
    },
    {
      "inputs": [],
      "name": "rewardPerTokenStored",
      "outputs": [
        {
          "internalType": "uint256",
          "name": "",
          "type": "uint256"
        }
      ],
      "stateMutability": "view",
      "type": "function"
    },
    {
      "inputs": [],
      "name": "rewardRate",
      "outputs": [
        {
          "internalType": "uint256",
          "name": "",
          "type": "uint256"
        }
      ],
      "stateMutability": "view",
      "type": "function"
    },
    {
      "inputs": [
        {
          "internalType": "address",
          "name": "",
          "type": "address"
        }
      ],
      "name": "rewards",
      "outputs": [
        {
          "internalType": "uint256",
          "name": "",
          "type": "uint256"
        }
      ],
      "stateMutability": "view",
      "type": "function"
    },
    {
      "inputs": [
        {
          "internalType": "uint256",
          "name": "_newRate",
          "type": "uint256"
        }
      ],
      "name": "setRewardRate",
      "outputs": [],
      "stateMutability": "nonpayable",
      "type": "function"
    },
    {
      "inputs": [
        {
          "internalType": "uint256",
          "name": "amount",
          "type": "uint256"
        }
      ],
      "name": "stake",
      "outputs": [],
      "stateMutability": "nonpayable",
      "type": "function"
    },
    {
      "inputs": [
        {
          "internalType": "address",
          "name": "",
          "type": "address"
        }
      ],
      "name": "stakedAmount",
      "outputs": [
        {
          "internalType": "uint256",
          "name": "",
          "type": "uint256"
        }
      ],
      "stateMutability": "view",
      "type": "function"
    },
    {
      "inputs": [],
      "name": "totalStaked",
      "outputs": [
        {
          "internalType": "uint256",
          "name": "",
          "type": "uint256"
        }
      ],
      "stateMutability": "view",
      "type": "function"
    },
    {
      "inputs": [
        {
          "internalType": "address",
          "name": "newOwner",
          "type": "address"
        }
      ],
      "name": "transferOwnership",
      "outputs": [],
      "stateMutability": "nonpayable",
      "type": "function"
    },
    {
      "inputs": [
        {
          "internalType": "uint256",
          "name": "amount",
          "type": "uint256"
        }
      ],
      "name": "unstake",
      "outputs": [],
      "stateMutability": "nonpayable",
      "type": "function"
    },
    {
      "inputs": [
        {
          "internalType": "address",
          "name": "",
          "type": "address"
        }
      ],
      "name": "userRewardPerTokenPaid",
      "outputs": [
        {
          "internalType": "uint256",
          "name": "",
          "type": "uint256"
        }
      ],
      "stateMutability": "view",
      "type": "function"
    },
    {
      "inputs": [
        {
          "internalType": "contract IERC20",
          "name": "_token",
          "type": "address"
        },
        {
          "internalType": "uint256",
          "name": "_amount",
          "type": "uint256"
        }
      ],
      "name": "withdrawAccidentalTokens",
      "outputs": [],
      "stateMutability": "nonpayable",
      "type": "function"
    }
  ],
  "bytecode": "0x608060405234801561001057600080fd5b50604051610e93380380610e9383398101604081905261002f916100b5565b61003833610065565b600180546001600160a01b0319166001600160a01b039390931692909217909155600255426003556100ef565b600080546001600160a01b038381166001600160a01b0319831681178455604051919092169283917f8be0079c531659141344cd1fd0a4f28419497f9722a3daafe3b4186f6b6457e09190a35050565b600080604083850312156100c857600080fd5b82516001600160a01b03811681146100df57600080fd5b6020939093015192949293505050565b610d95806100fe6000396000f3fe608060405234801561001057600080fd5b50600436106101155760003560e01c80638b876347116100a2578063a694fc3a11610071578063a694fc3a1461022b578063c8f33c911461023e578063df136d6514610247578063f2fde38b14610250578063f99318551461026357600080fd5b80638b876347146101d45780638da5cb5b146101f457806393707a19146102055780639e447fc61461021857600080fd5b80634356de8f116100e95780634356de8f1461017d578063657b1d9414610190578063715018a6146101bb5780637b0a47ee146101c3578063817b1cd2146101cc57600080fd5b80628cc2621461011a5780630700037d146101405780632e17de7814610160578063372500ab14610175575b600080fd5b61012d610128366004610c4d565b610283565b6040519081526020015b60405180910390f35b61012d61014e366004610c4d565b60076020526000908152604090205481565b61017361016e366004610c6a565b61033f565b005b610173610521565b61017361018b366004610c83565b610676565b6001546101a3906001600160a01b031681565b6040516001600160a01b039091168152602001610137565b610173610778565b61012d60025481565b61012d61078c565b61012d6101e2366004610c4d565b60066020526000908152604090205481565b6000546001600160a01b03166101a3565b610173610213366004610c6a565b6107fe565b610173610226366004610c6a565b61090e565b610173610239366004610c6a565b610963565b61012d60035481565b61012d60045481565b61017361025e366004610c4d565b610abc565b61012d610271366004610c4d565b60056020526000908152604090205481565b6004546000908161029261078c565b11156102e3576102e06102d96102a661078c565b6102d3670de0b6b3a76400006102cd6002546102cd60035442610b3590919063ffffffff16565b90610b4a565b90610b56565b8290610b62565b90505b6001600160a01b03831660009081526006602052604090205461033890670de0b6b3a7640000906102d390610319908590610b35565b6001600160a01b03871660009081526005602052604090205490610b4a565b9392505050565b600081116103945760405162461bcd60e51b815260206004820152601d60248201527f4e6f2073652070756564652072657469726172203020746f6b656e732e00000060448201526064015b60405180910390fd5b336000908152600560205260409020548111156104015760405162461bcd60e51b815260206004820152602560248201527f43616e7469646164206120726574697261722065786365646520656c2073746160448201526435b4b7339760d91b606482015260840161038b565b610409610b6e565b61042b61041533610283565b3360009081526007602052604090205490610b62565b33600090815260076020908152604080832093909355600454600682528383205560059052205461045c9082610b35565b336000818152600560205260409081902092909255600154915163a9059cbb60e01b81526004810191909152602481018390526001600160a01b039091169063a9059cbb906044016020604051808303816000875af11580156104c3573d6000803e3d6000fd5b505050506040513d601f19601f820116820180604052508101906104e79190610caf565b5060405181815233907f0f5bb82176feb1b5e747e28471aa92156a04d9f3ab9f45f28e2d704232b93f75906020015b60405180910390a250565b610529610b6e565b600061053433610283565b9050600081116105905760405162461bcd60e51b815260206004820152602160248201527f4e6f20686179207265636f6d70656e7361732070617261207265636c616d61726044820152601760f91b606482015260840161038b565b336000908152600760205260409020546105aa9082610b35565b336000818152600760209081526040808320949094556004805460069092529184902055600154925163a9059cbb60e01b815290810191909152602481018390526001600160a01b039091169063a9059cbb906044016020604051808303816000875af115801561061f573d6000803e3d6000fd5b505050506040513d601f19601f820116820180604052508101906106439190610caf565b5060405181815233907ffc30cddea38e2bf4d6ea7d3f9ed3b6ad7f176419f4963bd81318067a4aee73fe90602001610516565b61067e610b8e565b6001546001600160a01b03908116908316036107025760405162461bcd60e51b815260206004820152603860248201527f4e6f207365207075656465207265746972617220656c20746f6b656e2064652060448201527f7265636f6d70656e736120646972656374616d656e74652e0000000000000000606482015260840161038b565b60405163a9059cbb60e01b8152336004820152602481018290526001600160a01b0383169063a9059cbb906044016020604051808303816000875af115801561074f573d6000803e3d6000fd5b505050506040513d601f19601f820116820180604052508101906107739190610caf565b505050565b610780610b8e565b61078a6000610be8565b565b6001546040516370a0823160e01b81523060048201526000916001600160a01b0316906370a0823190602401602060405180830381865afa1580156107d5573d6000803e3d6000fd5b505050506040513d601f19601f820116820180604052508101906107f99190610cd1565b905090565b610806610b8e565b600081116108605760405162461bcd60e51b815260206004820152602160248201527f4e6f20736520707565646520666f6e6465617220636f6e203020746f6b656e736044820152601760f91b606482015260840161038b565b6001546040516323b872dd60e01b8152336004820152306024820152604481018390526001600160a01b03909116906323b872dd906064016020604051808303816000875af11580156108b7573d6000803e3d6000fd5b505050506040513d601f19601f820116820180604052508101906108db9190610caf565b5060405181815233907fd53214ca07be5520e229c395f05a3e5c0697ec6279184ffbe2758d304fd322cc90602001610516565b610916610b8e565b61091e610b6e565b600280549082905560408051828152602081018490527fc390a98ace15a7bb6bab611eedfdbb2685043b241a869420043cdfb23ccfee50910160405180910390a15050565b600081116109b35760405162461bcd60e51b815260206004820152601f60248201527f4e6f207365207075656465206465706f7369746172203020746f6b656e732e00604482015260640161038b565b6109bb610b6e565b6109c761041533610283565b3360009081526007602090815260408083209390935560045460068252838320556005905220546109f89082610b62565b33600081815260056020526040908190209290925560015491516323b872dd60e01b81526004810191909152306024820152604481018390526001600160a01b03909116906323b872dd906064016020604051808303816000875af1158015610a65573d6000803e3d6000fd5b505050506040513d601f19601f82011682018060405250810190610a899190610caf565b5060405181815233907f9e71bc8eea02a63969f509818f2dafb9254532904319f9dbda79b67bd34a5f3d90602001610516565b610ac4610b8e565b6001600160a01b038116610b295760405162461bcd60e51b815260206004820152602660248201527f4f776e61626c653a206e6577206f776e657220697320746865207a65726f206160448201526564647265737360d01b606482015260840161038b565b610b3281610be8565b50565b6000610b418284610d00565b90505b92915050565b6000610b418284610d13565b6000610b418284610d2a565b6000610b418284610d4c565b610b85610b7c6102a661078c565b60045490610b62565b60045542600355565b6000546001600160a01b0316331461078a5760405162461bcd60e51b815260206004820181905260248201527f4f776e61626c653a2063616c6c6572206973206e6f7420746865206f776e6572604482015260640161038b565b600080546001600160a01b038381166001600160a01b0319831681178455604051919092169283917f8be0079c531659141344cd1fd0a4f28419497f9722a3daafe3b4186f6b6457e09190a35050565b6001600160a01b0381168114610b3257600080fd5b600060208284031215610c5f57600080fd5b813561033881610c38565b600060208284031215610c7c57600080fd5b5035919050565b60008060408385031215610c9657600080fd5b8235610ca181610c38565b946020939093013593505050565b600060208284031215610cc157600080fd5b8151801515811461033857600080fd5b600060208284031215610ce357600080fd5b5051919050565b634e487b7160e01b600052601160045260246000fd5b81810381811115610b4457610b44610cea565b8082028115828204841417610b4457610b44610cea565b600082610d4757634e487b7160e01b600052601260045260246000fd5b500490565b80820180821115610b4457610b44610cea56fea2646970667358221220e75b88c19debd45f209e31259ea48360ca3e873aed710577e3fab92fec356b3664736f6c63430008130033",
  "linkReferences": {},
  "deployedLinkReferences": {}
}