{
  "_format": "hh-sol-artifact-1",
  "contractName": "HighPowerLPFarming",
  "sourceName": "contracts/HighPowerLPFarming.sol",
  "abi": [
    {
      "inputs": [
        {
          "internalType": "address",
          "name": "_lpTokenAddress",
          "type": "address"
        },
        {
          "internalType": "address",
          "name": "_rewardTokenAddress",
          "type": "address"
        },
        {
          "internalType": "uint256",
          "name": "_initialRewardRate",
          "type": "uint256"
        }
      ],
      "stateMutability": "nonpayable",
      "type": "constructor"
    },
    {
      "anonymous": false,
      "inputs": [
        {
          "indexed": true,
          "internalType": "address",
          "name": "to",
          "type": "address"
        },
        {
          "indexed": false,
          "internalType": "uint256",
          "name": "amount",
          "type": "uint256"
        }
      ],
      "name": "EmergencyWithdrawal",
      "type": "event"
    },
    {
      "anonymous": false,
      "inputs": [
        {
          "indexed": true,
          "internalType": "address",
          "name": "user",
          "type": "address"
        },
        {
          "indexed": false,
          "internalType": "uint256",
          "name": "amount",
          "type": "uint256"
        }
      ],
      "name": "LPStaked",
      "type": "event"
    },
    {
      "anonymous": false,
      "inputs": [
        {
          "indexed": true,
          "internalType": "address",
          "name": "user",
          "type": "address"
        },
        {
          "indexed": false,
          "internalType": "uint256",
          "name": "amount",
          "type": "uint256"
        }
      ],
      "name": "LPUnstaked",
      "type": "event"
    },
    {
      "anonymous": false,
      "inputs": [
        {
          "indexed": true,
          "internalType": "address",
          "name": "previousOwner",
          "type": "address"
        },
        {
          "indexed": true,
          "internalType": "address",
          "name": "newOwner",
          "type": "address"
        }
      ],
      "name": "OwnershipTransferred",
      "type": "event"
    },
    {
      "anonymous": false,
      "inputs": [
        {
          "indexed": false,
          "internalType": "uint256",
          "name": "newRate",
          "type": "uint256"
        }
      ],
      "name": "RewardRateUpdated",
      "type": "event"
    },
    {
      "anonymous": false,
      "inputs": [
        {
          "indexed": true,
          "internalType": "address",
          "name": "user",
          "type": "address"
        },
        {
          "indexed": false,
          "internalType": "uint256",
          "name": "amount",
          "type": "uint256"
        }
      ],
      "name": "RewardsClaimed",
      "type": "event"
    },
    {
      "inputs": [],
      "name": "claimRewards",
      "outputs": [],
      "stateMutability": "nonpayable",
      "type": "function"
    },
    {
      "inputs": [
        {
          "internalType": "address",
          "name": "_account",
          "type": "address"
        }
      ],
      "name": "earned",
      "outputs": [
        {
          "internalType": "uint256",
          "name": "",
          "type": "uint256"
        }
      ],
      "stateMutability": "view",
      "type": "function"
    },
    {
      "inputs": [
        {
          "internalType": "uint256",
          "name": "_amount",
          "type": "uint256"
        }
      ],
      "name": "emergencyWithdraw",
      "outputs": [],
      "stateMutability": "nonpayable",
      "type": "function"
    },
    {
      "inputs": [],
      "name": "lastUpdateTime",
      "outputs": [
        {
          "internalType": "uint256",
          "name": "",
          "type": "uint256"
        }
      ],
      "stateMutability": "view",
      "type": "function"
    },
    {
      "inputs": [],
      "name": "lpToken",
      "outputs": [
        {
          "internalType": "contract IERC20",
          "name": "",
          "type": "address"
        }
      ],
      "stateMutability": "view",
      "type": "function"
    },
    {
      "inputs": [],
      "name": "owner",
      "outputs": [
        {
          "internalType": "address",
          "name": "",
          "type": "address"
        }
      ],
      "stateMutability": "view",
      "type": "function"
    },
    {
      "inputs": [],
      "name": "renounceOwnership",
      "outputs": [],
      "stateMutability": "nonpayable",
      "type": "function"
    },
    {
      "inputs": [],
      "name": "rewardPerTokenStored",
      "outputs": [
        {
          "internalType": "uint256",
          "name": "",
          "type": "uint256"
        }
      ],
      "stateMutability": "view",
      "type": "function"
    },
    {
      "inputs": [],
      "name": "rewardRate",
      "outputs": [
        {
          "internalType": "uint256",
          "name": "",
          "type": "uint256"
        }
      ],
      "stateMutability": "view",
      "type": "function"
    },
    {
      "inputs": [],
      "name": "rewardToken",
      "outputs": [
        {
          "internalType": "contract IERC20",
          "name": "",
          "type": "address"
        }
      ],
      "stateMutability": "view",
      "type": "function"
    },
    {
      "inputs": [
        {
          "internalType": "uint256",
          "name": "_newRate",
          "type": "uint256"
        }
      ],
      "name": "setRewardRate",
      "outputs": [],
      "stateMutability": "nonpayable",
      "type": "function"
    },
    {
      "inputs": [
        {
          "internalType": "uint256",
          "name": "_amount",
          "type": "uint256"
        }
      ],
      "name": "stakeLP",
      "outputs": [],
      "stateMutability": "nonpayable",
      "type": "function"
    },
    {
      "inputs": [],
      "name": "totalLPStaked",
      "outputs": [
        {
          "internalType": "uint256",
          "name": "",
          "type": "uint256"
        }
      ],
      "stateMutability": "view",
      "type": "function"
    },
    {
      "inputs": [
        {
          "internalType": "address",
          "name": "newOwner",
          "type": "address"
        }
      ],
      "name": "transferOwnership",
      "outputs": [],
      "stateMutability": "nonpayable",
      "type": "function"
    },
    {
      "inputs": [
        {
          "internalType": "uint256",
          "name": "_amount",
          "type": "uint256"
        }
      ],
      "name": "unstakeLP",
      "outputs": [],
      "stateMutability": "nonpayable",
      "type": "function"
    },
    {
      "inputs": [],
      "name": "updateRewardPerToken",
      "outputs": [],
      "stateMutability": "nonpayable",
      "type": "function"
    },
    {
      "inputs": [
        {
          "internalType": "address",
          "name": "",
          "type": "address"
        }
      ],
      "name": "userLPStaked",
      "outputs": [
        {
          "internalType": "uint256",
          "name": "",
          "type": "uint256"
        }
      ],
      "stateMutability": "view",
      "type": "function"
    },
    {
      "inputs": [
        {
          "internalType": "address",
          "name": "",
          "type": "address"
        }
      ],
      "name": "userRewardPerTokenPaid",
      "outputs": [
        {
          "internalType": "uint256",
          "name": "",
          "type": "uint256"
        }
      ],
      "stateMutability": "view",
      "type": "function"
    },
    {
      "inputs": [
        {
          "internalType": "address",
          "name": "",
          "type": "address"
        }
      ],
      "name": "userRewards",
      "outputs": [
        {
          "internalType": "uint256",
          "name": "",
          "type": "uint256"
        }
      ],
      "stateMutability": "view",
      "type": "function"
    }
  ],
  "bytecode": "0x60c060405234801561001057600080fd5b50604051610f4e380380610f4e83398101604081905261002f91610180565b61003833610114565b6001600160a01b0383166100935760405162461bcd60e51b815260206004820152601f60248201527f4c5020746f6b656e20616464726573732063616e6e6f74206265207a65726f0060448201526064015b60405180910390fd5b6001600160a01b0382166100f55760405162461bcd60e51b815260206004820152602360248201527f52657761726420746f6b656e20616464726573732063616e6e6f74206265207a60448201526265726f60e81b606482015260840161008a565b6001600160a01b03928316608052911660a052600155426002556101bc565b600080546001600160a01b038381166001600160a01b0319831681178455604051919092169283917f8be0079c531659141344cd1fd0a4f28419497f9722a3daafe3b4186f6b6457e09190a35050565b80516001600160a01b038116811461017b57600080fd5b919050565b60008060006060848603121561019557600080fd5b61019e84610164565b92506101ac60208501610164565b9150604084015190509250925092565b60805160a051610d4a6102046000396000818161029d015261042501526000818161018d015281816104eb015281816105b8015281816108380152610a1e0152610d4a6000f3fe608060405234801561001057600080fd5b50600436106101205760003560e01c80638da5cb5b116100ad578063c8f33c9111610071578063c8f33c9114610260578063df136d6514610269578063e5da2cb214610272578063f2fde38b14610285578063f7c618c11461029857600080fd5b80638da5cb5b146102015780639e447fc614610212578063bcbeef9114610225578063c477899814610245578063c48aa7391461025857600080fd5b80635fcbd285116100f45780635fcbd28514610188578063715018a6146101c75780637b0a47ee146101cf5780638575837c146101d85780638b876347146101e157600080fd5b80628cc262146101255780630660f1e81461014b578063372500ab1461016b5780635312ea8e14610175575b600080fd5b610138610133366004610c22565b6102bf565b6040519081526020015b60405180910390f35b610138610159366004610c22565b60076020526000908152604090205481565b61017361038d565b005b610173610183366004610c4b565b6104cc565b6101af7f000000000000000000000000000000000000000000000000000000000000000081565b6040516001600160a01b039091168152602001610142565b6101736106af565b61013860015481565b61013860045481565b6101386101ef366004610c22565b60066020526000908152604090205481565b6000546001600160a01b03166101af565b610173610220366004610c4b565b6106c3565b610138610233366004610c22565b60056020526000908152604090205481565b610173610253366004610c4b565b61070e565b6101736108e0565b61013860025481565b61013860035481565b610173610280366004610c4b565b610946565b610173610293366004610c22565b610ac6565b6101af7f000000000000000000000000000000000000000000000000000000000000000081565b600354600454600091901561031a5761031761031060045461030a670de0b6b3a76400006103046102fb60025442610b3f90919063ffffffff16565b60015490610b54565b90610b54565b90610b60565b8290610b6c565b90505b6001600160a01b038316600090815260076020908152604080832054600690925290912054610386919061038090670de0b6b3a76400009061030a90610361908790610b3f565b6001600160a01b03891660009081526005602052604090205490610b54565b90610b6c565b9392505050565b6103956108e0565b60006103a0336102bf565b9050600081116103ed5760405162461bcd60e51b81526020600482015260136024820152724e6f207265776172647320746f20636c61696d60681b60448201526064015b60405180910390fd5b33600081815260076020526040808220919091555163a9059cbb60e01b81526004810191909152602481018290526001600160a01b037f0000000000000000000000000000000000000000000000000000000000000000169063a9059cbb906044016020604051808303816000875af115801561046e573d6000803e3d6000fd5b505050506040513d601f19601f820116820180604052508101906104929190610c64565b5060405181815233907ffc30cddea38e2bf4d6ea7d3f9ed3b6ad7f176419f4963bd81318067a4aee73fe906020015b60405180910390a250565b6104d4610b78565b6040516370a0823160e01b815230600482015281907f00000000000000000000000000000000000000000000000000000000000000006001600160a01b0316906370a0823190602401602060405180830381865afa15801561053a573d6000803e3d6000fd5b505050506040513d601f19601f8201168201806040525081019061055e9190610c86565b10156105b65760405162461bcd60e51b815260206004820152602160248201527f496e73756666696369656e74204c502066756e647320696e20636f6e747261636044820152601d60fa1b60648201526084016103e4565b7f00000000000000000000000000000000000000000000000000000000000000006001600160a01b031663a9059cbb6105f76000546001600160a01b031690565b6040516001600160e01b031960e084901b1681526001600160a01b039091166004820152602481018490526044016020604051808303816000875af1158015610644573d6000803e3d6000fd5b505050506040513d601f19601f820116820180604052508101906106689190610c64565b506000546001600160a01b03166001600160a01b03167f23d6711a1d031134a36921253c75aa59e967d38e369ac625992824315e204f20826040516104c191815260200190565b6106b7610b78565b6106c16000610bd2565b565b6106cb610b78565b6106d36108e0565b60018190556040518181527f41d466ebd06fb97e7786086ac8b69b7eb7da798592036251291d34e9791cde019060200160405180910390a150565b6000811161075e5760405162461bcd60e51b815260206004820181905260248201527f416d6f756e74206d7573742062652067726561746572207468616e207a65726f60448201526064016103e4565b336000908152600560205260409020548111156107b65760405162461bcd60e51b8152602060048201526016602482015275125b9cdd59999a58da595b9d081314081cdd185ad95960521b60448201526064016103e4565b6107be6108e0565b6107c7336102bf565b3360009081526007602090815260408083209390935560035460068252838320556005905220546107f89082610b3f565b336000908152600560205260409020556004546108159082610b3f565b600490815560405163a9059cbb60e01b81523391810191909152602481018290527f00000000000000000000000000000000000000000000000000000000000000006001600160a01b03169063a9059cbb906044016020604051808303816000875af1158015610889573d6000803e3d6000fd5b505050506040513d601f19601f820116820180604052508101906108ad9190610c64565b5060405181815233907fdedb97f2fb18b4c6461bcd084c1bf979cd446e5c923a4ad87306aad7730f6b74906020016104c1565b6004546000036108f05742600255565b600061090760025442610b3f90919063ffffffff16565b905061093c61093360045461030a670de0b6b3a764000061030486600154610b5490919063ffffffff16565b60035490610b6c565b6003555042600255565b600081116109965760405162461bcd60e51b815260206004820181905260248201527f416d6f756e74206d7573742062652067726561746572207468616e207a65726f60448201526064016103e4565b61099e6108e0565b6109a7336102bf565b3360009081526007602090815260408083209390935560035460068252838320556005905220546109d89082610b6c565b336000908152600560205260409020556004546109f59082610b6c565b60049081556040516323b872dd60e01b81523391810191909152306024820152604481018290527f00000000000000000000000000000000000000000000000000000000000000006001600160a01b0316906323b872dd906064016020604051808303816000875af1158015610a6f573d6000803e3d6000fd5b505050506040513d601f19601f82011682018060405250810190610a939190610c64565b5060405181815233907fc1306d9275a34df20314ffe630eec81736198b8c61f254d5cd80a9b0c9f1171f906020016104c1565b610ace610b78565b6001600160a01b038116610b335760405162461bcd60e51b815260206004820152602660248201527f4f776e61626c653a206e6577206f776e657220697320746865207a65726f206160448201526564647265737360d01b60648201526084016103e4565b610b3c81610bd2565b50565b6000610b4b8284610cb5565b90505b92915050565b6000610b4b8284610cc8565b6000610b4b8284610cdf565b6000610b4b8284610d01565b6000546001600160a01b031633146106c15760405162461bcd60e51b815260206004820181905260248201527f4f776e61626c653a2063616c6c6572206973206e6f7420746865206f776e657260448201526064016103e4565b600080546001600160a01b038381166001600160a01b0319831681178455604051919092169283917f8be0079c531659141344cd1fd0a4f28419497f9722a3daafe3b4186f6b6457e09190a35050565b600060208284031215610c3457600080fd5b81356001600160a01b038116811461038657600080fd5b600060208284031215610c5d57600080fd5b5035919050565b600060208284031215610c7657600080fd5b8151801515811461038657600080fd5b600060208284031215610c9857600080fd5b5051919050565b634e487b7160e01b600052601160045260246000fd5b81810381811115610b4e57610b4e610c9f565b8082028115828204841417610b4e57610b4e610c9f565b600082610cfc57634e487b7160e01b600052601260045260246000fd5b500490565b80820180821115610b4e57610b4e610c9f56fea2646970667358221220759954fc414deae41a8efc9030f8d84b402e3ea8cdf6fd3a9d75e9261af873b264736f6c63430008130033",
  "linkReferences": {},
  "deployedLinkReferences": {}
}