{
  "_format": "hh-sol-artifact-1",
  "contractName": "HighPowerStaking",
  "sourceName": "contracts/HighPowerStaking.sol",
  "abi": [
    {
      "inputs": [
        {
          "internalType": "address",
          "name": "_hgpTokenAddress",
          "type": "address"
        },
        {
          "internalType": "uint256",
          "name": "_initialRewardRate",
          "type": "uint256"
        }
      ],
      "stateMutability": "nonpayable",
      "type": "constructor"
    },
    {
      "anonymous": false,
      "inputs": [
        {
          "indexed": true,
          "internalType": "address",
          "name": "funder",
          "type": "address"
        },
        {
          "indexed": false,
          "internalType": "uint256",
          "name": "amount",
          "type": "uint256"
        }
      ],
      "name": "ContractFunded",
      "type": "event"
    },
    {
      "anonymous": false,
      "inputs": [
        {
          "indexed": true,
          "internalType": "address",
          "name": "previousOwner",
          "type": "address"
        },
        {
          "indexed": true,
          "internalType": "address",
          "name": "newOwner",
          "type": "address"
        }
      ],
      "name": "OwnershipTransferred",
      "type": "event"
    },
    {
      "anonymous": false,
      "inputs": [
        {
          "indexed": false,
          "internalType": "uint256",
          "name": "newRate",
          "type": "uint256"
        }
      ],
      "name": "RewardRateUpdated",
      "type": "event"
    },
    {
      "anonymous": false,
      "inputs": [
        {
          "indexed": true,
          "internalType": "address",
          "name": "user",
          "type": "address"
        },
        {
          "indexed": false,
          "internalType": "uint256",
          "name": "amount",
          "type": "uint256"
        }
      ],
      "name": "RewardsClaimed",
      "type": "event"
    },
    {
      "anonymous": false,
      "inputs": [
        {
          "indexed": true,
          "internalType": "address",
          "name": "user",
          "type": "address"
        },
        {
          "indexed": false,
          "internalType": "uint256",
          "name": "amount",
          "type": "uint256"
        }
      ],
      "name": "Staked",
      "type": "event"
    },
    {
      "anonymous": false,
      "inputs": [
        {
          "indexed": true,
          "internalType": "address",
          "name": "user",
          "type": "address"
        },
        {
          "indexed": false,
          "internalType": "uint256",
          "name": "amount",
          "type": "uint256"
        }
      ],
      "name": "Unstaked",
      "type": "event"
    },
    {
      "inputs": [],
      "name": "claimRewards",
      "outputs": [],
      "stateMutability": "nonpayable",
      "type": "function"
    },
    {
      "inputs": [
        {
          "internalType": "address",
          "name": "_user",
          "type": "address"
        }
      ],
      "name": "earned",
      "outputs": [
        {
          "internalType": "uint256",
          "name": "",
          "type": "uint256"
        }
      ],
      "stateMutability": "view",
      "type": "function"
    },
    {
      "inputs": [
        {
          "internalType": "uint256",
          "name": "_amount",
          "type": "uint256"
        }
      ],
      "name": "fundContract",
      "outputs": [],
      "stateMutability": "nonpayable",
      "type": "function"
    },
    {
      "inputs": [],
      "name": "hgpToken",
      "outputs": [
        {
          "internalType": "contract IERC20",
          "name": "",
          "type": "address"
        }
      ],
      "stateMutability": "view",
      "type": "function"
    },
    {
      "inputs": [],
      "name": "lastUpdateTime",
      "outputs": [
        {
          "internalType": "uint256",
          "name": "",
          "type": "uint256"
        }
      ],
      "stateMutability": "view",
      "type": "function"
    },
    {
      "inputs": [],
      "name": "owner",
      "outputs": [
        {
          "internalType": "address",
          "name": "",
          "type": "address"
        }
      ],
      "stateMutability": "view",
      "type": "function"
    },
    {
      "inputs": [],
      "name": "renounceOwnership",
      "outputs": [],
      "stateMutability": "nonpayable",
      "type": "function"
    },
    {
      "inputs": [
        {
          "internalType": "address",
          "name": "",
          "type": "address"
        }
      ],
      "name": "rewardPerTokenPaid",
      "outputs": [
        {
          "internalType": "uint256",
          "name": "",
          "type": "uint256"
        }
      ],
      "stateMutability": "view",
      "type": "function"
    },
    {
      "inputs": [],
      "name": "rewardPerTokenStored",
      "outputs": [
        {
          "internalType": "uint256",
          "name": "",
          "type": "uint256"
        }
      ],
      "stateMutability": "view",
      "type": "function"
    },
    {
      "inputs": [],
      "name": "rewardRate",
      "outputs": [
        {
          "internalType": "uint256",
          "name": "",
          "type": "uint256"
        }
      ],
      "stateMutability": "view",
      "type": "function"
    },
    {
      "inputs": [
        {
          "internalType": "address",
          "name": "",
          "type": "address"
        }
      ],
      "name": "rewards",
      "outputs": [
        {
          "internalType": "uint256",
          "name": "",
          "type": "uint256"
        }
      ],
      "stateMutability": "view",
      "type": "function"
    },
    {
      "inputs": [
        {
          "internalType": "uint256",
          "name": "_newRate",
          "type": "uint256"
        }
      ],
      "name": "setRewardRate",
      "outputs": [],
      "stateMutability": "nonpayable",
      "type": "function"
    },
    {
      "inputs": [
        {
          "internalType": "uint256",
          "name": "_amount",
          "type": "uint256"
        }
      ],
      "name": "stake",
      "outputs": [],
      "stateMutability": "nonpayable",
      "type": "function"
    },
    {
      "inputs": [
        {
          "internalType": "address",
          "name": "",
          "type": "address"
        }
      ],
      "name": "stakedAmount",
      "outputs": [
        {
          "internalType": "uint256",
          "name": "",
          "type": "uint256"
        }
      ],
      "stateMutability": "view",
      "type": "function"
    },
    {
      "inputs": [],
      "name": "totalStaked",
      "outputs": [
        {
          "internalType": "uint256",
          "name": "",
          "type": "uint256"
        }
      ],
      "stateMutability": "view",
      "type": "function"
    },
    {
      "inputs": [
        {
          "internalType": "address",
          "name": "newOwner",
          "type": "address"
        }
      ],
      "name": "transferOwnership",
      "outputs": [],
      "stateMutability": "nonpayable",
      "type": "function"
    },
    {
      "inputs": [
        {
          "internalType": "uint256",
          "name": "_amount",
          "type": "uint256"
        }
      ],
      "name": "unstake",
      "outputs": [],
      "stateMutability": "nonpayable",
      "type": "function"
    },
    {
      "inputs": [
        {
          "internalType": "address",
          "name": "",
          "type": "address"
        }
      ],
      "name": "userLastStakedTime",
      "outputs": [
        {
          "internalType": "uint256",
          "name": "",
          "type": "uint256"
        }
      ],
      "stateMutability": "view",
      "type": "function"
    },
    {
      "inputs": [
        {
          "internalType": "uint256",
          "name": "_amount",
          "type": "uint256"
        }
      ],
      "name": "withdrawHGP",
      "outputs": [],
      "stateMutability": "nonpayable",
      "type": "function"
    }
  ],
  "bytecode": "0x60a03461012457601f610e5638819003918201601f19168301916001600160401b038311848410176101295780849260409485528339810103126101245780516001600160a01b0391828216918290036101245760200151916000543360018060a01b0319821617600055604051913391167f8be0079c531659141344cd1fd0a4f28419497f9722a3daafe3b4186f6b6457e0600080a381156100e2575060805260015542600255604051610d169081610140823960805181818161025a0152818161049a015281816106520152818161071a0152818161084001526109740152f35b62461bcd60e51b815260206004820181905260248201527f48475020746f6b656e20616464726573732063616e6e6f74206265207a65726f6044820152606490fd5b600080fd5b634e487b7160e01b600052604160045260246000fdfe6040608081526004908136101561001557600080fd5b600091823560e01c80628cc26214610a515780630700037d14610a185780632e17de78146108c15780633519a2f8146107dd578063372500ab146106ba578063653a8da114610681578063657b1d941461063d578063715018a6146105e05780637b0a47ee146105c1578063817b1cd2146105a25780638da5cb5b1461057a5780639e447fc614610525578063a694fc3a146103f6578063a7309d7d146103bd578063c8f33c911461039e578063cf4930b91461021e578063df136d65146101fb578063f2fde38b146101315763f9931855146100f157600080fd5b3461012d57602036600319011261012d5780356001600160a01b03811690819003610129579282916020948252845220549051908152f35b8380fd5b8280fd5b50903461012d57602036600319011261012d576001600160a01b038235818116939192908490036101f757610164610a88565b83156101a557505082546001600160a01b0319811683178455167f8be0079c531659141344cd1fd0a4f28419497f9722a3daafe3b4186f6b6457e08380a380f35b906020608492519162461bcd60e51b8352820152602660248201527f4f776e61626c653a206e6577206f776e657220697320746865207a65726f206160448201526564647265737360d01b6064820152fd5b8480fd5b50503461021a578160031936011261021a576020906008549051908152f35b5080fd5b5091903461021a576020908160031936011261012d5783359361023f610a88565b81516370a0823160e01b815230828201526001600160a01b037f0000000000000000000000000000000000000000000000000000000000000000811692918581602481875afa90811561039457908891889161035f575b501061031c578554845163a9059cbb60e01b815291166001600160a01b0316918101918252602082018790529291849184919082908890829060400103925af190811561031357506102e6578280f35b8161030592903d1061030c575b6102fd8183610c52565b810190610c8a565b5081808280f35b503d6102f3565b513d85823e3d90fd5b835162461bcd60e51b8152808301869052601e60248201527f496e73756666696369656e742066756e647320696e20636f6e747261637400006044820152606490fd5b809250878092503d831161038d575b6103788183610c52565b810103126103895787905138610296565b8680fd5b503d61036e565b85513d89823e3d90fd5b50503461021a578160031936011261021a576020906002549051908152f35b503461012d57602036600319011261012d57356001600160a01b0381169081900361012d57828291602094526005845220549051908152f35b503461012d576020806003193601126101295761049592818335809461041d821515610c07565b610425610ca7565b61042e33610b43565b33895260068452848920556008546007845284892055808352838820610455838254610b36565b905561046382600354610b36565b60035583516323b872dd60e01b8152339181019182523060208301526040820192909252909586918291606090910190565b0381887f00000000000000000000000000000000000000000000000000000000000000006001600160a01b03165af193841561051b577f9e71bc8eea02a63969f509818f2dafb9254532904319f9dbda79b67bd34a5f3d93946104fe575b50519283523392a280f35b61051490833d851161030c576102fd8183610c52565b50386104f3565b81513d87823e3d90fd5b503461012d57602036600319011261012d577f41d466ebd06fb97e7786086ac8b69b7eb7da798592036251291d34e9791cde01916020913590610566610a88565b61056e610ca7565b8160015551908152a180f35b50503461021a578160031936011261021a57905490516001600160a01b039091168152602090f35b50503461021a578160031936011261021a576020906003549051908152f35b50503461021a578160031936011261021a576020906001549051908152f35b833461063a578060031936011261063a576105f9610a88565b80546001600160a01b03198116825581906001600160a01b03167f8be0079c531659141344cd1fd0a4f28419497f9722a3daafe3b4186f6b6457e08280a380f35b80fd5b50503461021a578160031936011261021a57517f00000000000000000000000000000000000000000000000000000000000000006001600160a01b03168152602090f35b503461012d57602036600319011261012d57356001600160a01b0381169081900361012d57828291602094526007845220549051908152f35b50903461012d578260031936011261012d576106d4610ca7565b6106dd33610b43565b9182156107a5573380855260066020908152838620869055835163a9059cbb60e01b815292830191825281810185905290829081906040010381877f00000000000000000000000000000000000000000000000000000000000000006001600160a01b03165af1801561079b5761077d575b50519081527ffc30cddea38e2bf4d6ea7d3f9ed3b6ad7f176419f4963bd81318067a4aee73fe60203392a280f35b6107949060203d811161030c576102fd8183610c52565b503861074f565b82513d86823e3d90fd5b6020606492519162461bcd60e51b835282015260136024820152724e6f207265776172647320746f20636c61696d60681b6044820152fd5b50903461012d57602036600319011261012d5761083b602083358094610801610a88565b61080c821515610c07565b84516323b872dd60e01b8152339181019182523060208301526040820192909252909283918291606090910190565b0381877f00000000000000000000000000000000000000000000000000000000000000006001600160a01b03165af1801561079b576108a3575b50519081527f0939f6f4877faf071412e527bc4c6d0bd65ad077e52b57334f7765265647a7f160203392a280f35b6108ba9060203d811161030c576102fd8183610c52565b5038610875565b50903461012d5760209081600319360112610129578235926108e4841515610c07565b3385528083528382862054106109d75790828461096f959493610905610ca7565b61090e33610b43565b33895260068452848920556008546007845284892055808352838820610935838254610ae0565b905561094382600354610ae0565b600355835163a9059cbb60e01b8152339181019182526020820192909252909586918291604090910190565b0381887f00000000000000000000000000000000000000000000000000000000000000006001600160a01b03165af193841561051b577f0f5bb82176feb1b5e747e28471aa92156a04d9f3ab9f45f28e2d704232b93f7593946104fe5750519283523392a280f35b82606492519162461bcd60e51b8352820152601760248201527f496e73756666696369656e7420484750207374616b65640000000000000000006044820152fd5b503461012d57602036600319011261012d57356001600160a01b0381169081900361012d57828291602094526006845220549051908152f35b503461012d57602036600319011261012d5735916001600160a01b038316830361063a5750610a81602092610b43565b9051908152f35b6000546001600160a01b03163303610a9c57565b606460405162461bcd60e51b815260206004820152602060248201527f4f776e61626c653a2063616c6c6572206973206e6f7420746865206f776e65726044820152fd5b91908203918211610aed57565b634e487b7160e01b600052601160045260246000fd5b81810292918115918404141715610aed57565b8115610b20570490565b634e487b7160e01b600052601260045260246000fd5b91908201809211610aed57565b610bab906008549060035480610bae575b50610b95670de0b6b3a76400009160018060a01b031692836000526004602052610b8f60406000205491600760205260406000205490610ae0565b90610b03565b0490600052600660205260406000205490610b36565b90565b610bed670de0b6b3a76400009293610be7610b9593610be2610bda610bd1610bf5565b60025490610ae0565b600154610b03565b610b16565b90610b36565b929150610b54565b600254804211600014610bab57504290565b15610c0e57565b606460405162461bcd60e51b815260206004820152602060248201527f416d6f756e74206d7573742062652067726561746572207468616e207a65726f6044820152fd5b90601f8019910116810190811067ffffffffffffffff821117610c7457604052565b634e487b7160e01b600052604160045260246000fd5b90816020910312610ca257518015158103610ca25790565b600080fd5b6003548015610cdd57610cc5610ccd91610be2610bda610bd1610bf5565b600854610b36565b600855610cd8610bf5565b600255565b5056fea2646970667358221220b4b38d289319bd7abbf32f2b66e970e88d529a8cd506373defcf68f5fd97bd2864736f6c63430008140033",
  "linkReferences": {},
  "deployedLinkReferences": {}
}