{
  "_format": "hh-sol-artifact-1",
  "contractName": "MyNFT",
  "sourceName": "contracts/MyNFT.sol",
  "abi": [
    {
      "inputs": [],
      "stateMutability": "nonpayable",
      "type": "constructor"
    },
    {
      "anonymous": false,
      "inputs": [
        {
          "indexed": true,
          "internalType": "address",
          "name": "owner",
          "type": "address"
        },
        {
          "indexed": true,
          "internalType": "address",
          "name": "approved",
          "type": "address"
        },
        {
          "indexed": true,
          "internalType": "uint256",
          "name": "tokenId",
          "type": "uint256"
        }
      ],
      "name": "Approval",
      "type": "event"
    },
    {
      "anonymous": false,
      "inputs": [
        {
          "indexed": true,
          "internalType": "address",
          "name": "owner",
          "type": "address"
        },
        {
          "indexed": true,
          "internalType": "address",
          "name": "operator",
          "type": "address"
        },
        {
          "indexed": false,
          "internalType": "bool",
          "name": "approved",
          "type": "bool"
        }
      ],
      "name": "ApprovalForAll",
      "type": "event"
    },
    {
      "anonymous": false,
      "inputs": [
        {
          "indexed": true,
          "internalType": "address",
          "name": "previousOwner",
          "type": "address"
        },
        {
          "indexed": true,
          "internalType": "address",
          "name": "newOwner",
          "type": "address"
        }
      ],
      "name": "OwnershipTransferred",
      "type": "event"
    },
    {
      "anonymous": false,
      "inputs": [
        {
          "indexed": true,
          "internalType": "address",
          "name": "from",
          "type": "address"
        },
        {
          "indexed": true,
          "internalType": "address",
          "name": "to",
          "type": "address"
        },
        {
          "indexed": true,
          "internalType": "uint256",
          "name": "tokenId",
          "type": "uint256"
        }
      ],
      "name": "Transfer",
      "type": "event"
    },
    {
      "inputs": [],
      "name": "MAX_SUPPLY",
      "outputs": [
        {
          "internalType": "uint256",
          "name": "",
          "type": "uint256"
        }
      ],
      "stateMutability": "view",
      "type": "function"
    },
    {
      "inputs": [
        {
          "internalType": "address",
          "name": "to",
          "type": "address"
        },
        {
          "internalType": "uint256",
          "name": "tokenId",
          "type": "uint256"
        }
      ],
      "name": "approve",
      "outputs": [],
      "stateMutability": "nonpayable",
      "type": "function"
    },
    {
      "inputs": [
        {
          "internalType": "address",
          "name": "owner",
          "type": "address"
        }
      ],
      "name": "balanceOf",
      "outputs": [
        {
          "internalType": "uint256",
          "name": "",
          "type": "uint256"
        }
      ],
      "stateMutability": "view",
      "type": "function"
    },
    {
      "inputs": [
        {
          "internalType": "uint256",
          "name": "tokenId",
          "type": "uint256"
        }
      ],
      "name": "getApproved",
      "outputs": [
        {
          "internalType": "address",
          "name": "",
          "type": "address"
        }
      ],
      "stateMutability": "view",
      "type": "function"
    },
    {
      "inputs": [
        {
          "internalType": "address",
          "name": "owner",
          "type": "address"
        },
        {
          "internalType": "address",
          "name": "operator",
          "type": "address"
        }
      ],
      "name": "isApprovedForAll",
      "outputs": [
        {
          "internalType": "bool",
          "name": "",
          "type": "bool"
        }
      ],
      "stateMutability": "view",
      "type": "function"
    },
    {
      "inputs": [],
      "name": "name",
      "outputs": [
        {
          "internalType": "string",
          "name": "",
          "type": "string"
        }
      ],
      "stateMutability": "view",
      "type": "function"
    },
    {
      "inputs": [],
      "name": "owner",
      "outputs": [
        {
          "internalType": "address",
          "name": "",
          "type": "address"
        }
      ],
      "stateMutability": "view",
      "type": "function"
    },
    {
      "inputs": [
        {
          "internalType": "uint256",
          "name": "tokenId",
          "type": "uint256"
        }
      ],
      "name": "ownerOf",
      "outputs": [
        {
          "internalType": "address",
          "name": "",
          "type": "address"
        }
      ],
      "stateMutability": "view",
      "type": "function"
    },
    {
      "inputs": [],
      "name": "renounceOwnership",
      "outputs": [],
      "stateMutability": "nonpayable",
      "type": "function"
    },
    {
      "inputs": [
        {
          "internalType": "address",
          "name": "to",
          "type": "address"
        }
      ],
      "name": "safeMint",
      "outputs": [],
      "stateMutability": "nonpayable",
      "type": "function"
    },
    {
      "inputs": [
        {
          "internalType": "address",
          "name": "from",
          "type": "address"
        },
        {
          "internalType": "address",
          "name": "to",
          "type": "address"
        },
        {
          "internalType": "uint256",
          "name": "tokenId",
          "type": "uint256"
        }
      ],
      "name": "safeTransferFrom",
      "outputs": [],
      "stateMutability": "nonpayable",
      "type": "function"
    },
    {
      "inputs": [
        {
          "internalType": "address",
          "name": "from",
          "type": "address"
        },
        {
          "internalType": "address",
          "name": "to",
          "type": "address"
        },
        {
          "internalType": "uint256",
          "name": "tokenId",
          "type": "uint256"
        },
        {
          "internalType": "bytes",
          "name": "data",
          "type": "bytes"
        }
      ],
      "name": "safeTransferFrom",
      "outputs": [],
      "stateMutability": "nonpayable",
      "type": "function"
    },
    {
      "inputs": [
        {
          "internalType": "address",
          "name": "operator",
          "type": "address"
        },
        {
          "internalType": "bool",
          "name": "approved",
          "type": "bool"
        }
      ],
      "name": "setApprovalForAll",
      "outputs": [],
      "stateMutability": "nonpayable",
      "type": "function"
    },
    {
      "inputs": [
        {
          "internalType": "bytes4",
          "name": "interfaceId",
          "type": "bytes4"
        }
      ],
      "name": "supportsInterface",
      "outputs": [
        {
          "internalType": "bool",
          "name": "",
          "type": "bool"
        }
      ],
      "stateMutability": "view",
      "type": "function"
    },
    {
      "inputs": [],
      "name": "symbol",
      "outputs": [
        {
          "internalType": "string",
          "name": "",
          "type": "string"
        }
      ],
      "stateMutability": "view",
      "type": "function"
    },
    {
      "inputs": [
        {
          "internalType": "uint256",
          "name": "index",
          "type": "uint256"
        }
      ],
      "name": "tokenByIndex",
      "outputs": [
        {
          "internalType": "uint256",
          "name": "",
          "type": "uint256"
        }
      ],
      "stateMutability": "view",
      "type": "function"
    },
    {
      "inputs": [
        {
          "internalType": "address",
          "name": "owner",
          "type": "address"
        },
        {
          "internalType": "uint256",
          "name": "index",
          "type": "uint256"
        }
      ],
      "name": "tokenOfOwnerByIndex",
      "outputs": [
        {
          "internalType": "uint256",
          "name": "",
          "type": "uint256"
        }
      ],
      "stateMutability": "view",
      "type": "function"
    },
    {
      "inputs": [
        {
          "internalType": "uint256",
          "name": "tokenId",
          "type": "uint256"
        }
      ],
      "name": "tokenURI",
      "outputs": [
        {
          "internalType": "string",
          "name": "",
          "type": "string"
        }
      ],
      "stateMutability": "view",
      "type": "function"
    },
    {
      "inputs": [],
      "name": "totalSupply",
      "outputs": [
        {
          "internalType": "uint256",
          "name": "",
          "type": "uint256"
        }
      ],
      "stateMutability": "view",
      "type": "function"
    },
    {
      "inputs": [
        {
          "internalType": "address",
          "name": "from",
          "type": "address"
        },
        {
          "internalType": "address",
          "name": "to",
          "type": "address"
        },
        {
          "internalType": "uint256",
          "name": "tokenId",
          "type": "uint256"
        }
      ],
      "name": "transferFrom",
      "outputs": [],
      "stateMutability": "nonpayable",
      "type": "function"
    },
    {
      "inputs": [
        {
          "internalType": "address",
          "name": "newOwner",
          "type": "address"
        }
      ],
      "name": "transferOwnership",
      "outputs": [],
      "stateMutability": "nonpayable",
      "type": "function"
    }
  ],
  "bytecode": "0x60806040523480156200001157600080fd5b506040518060400160405280600d81526020016c121a59da141bddd95c88139195609a1b81525060405180604001604052806005815260200164121413919560da1b815250816000908162000067919062000194565b50600162000076828262000194565b505050620000936200008d6200009960201b60201c565b6200009d565b62000260565b3390565b600a80546001600160a01b038381166001600160a01b0319831681179093556040519116919082907f8be0079c531659141344cd1fd0a4f28419497f9722a3daafe3b4186f6b6457e090600090a35050565b634e487b7160e01b600052604160045260246000fd5b600181811c908216806200011a57607f821691505b6020821081036200013b57634e487b7160e01b600052602260045260246000fd5b50919050565b601f8211156200018f57600081815260208120601f850160051c810160208610156200016a5750805b601f850160051c820191505b818110156200018b5782815560010162000176565b5050505b505050565b81516001600160401b03811115620001b057620001b0620000ef565b620001c881620001c1845462000105565b8462000141565b602080601f831160018114620002005760008415620001e75750858301515b600019600386901b1c1916600185901b1785556200018b565b600085815260208120601f198616915b82811015620002315788860151825594840194600190910190840162000210565b5085821015620002505787850151600019600388901b60f8161c191681555b5050505050600190811b01905550565b6119eb80620002706000396000f3fe608060405234801561001057600080fd5b50600436106101375760003560e01c80634f6ccce7116100b857806395d89b411161007c57806395d89b4114610272578063a22cb4651461027a578063b88d4fde1461028d578063c87b56dd146102a0578063e985e9c5146102b3578063f2fde38b146102ef57600080fd5b80634f6ccce7146102205780636352211e1461023357806370a0823114610246578063715018a6146102595780638da5cb5b1461026157600080fd5b806323b872dd116100ff57806323b872dd146101cb5780632f745c59146101de57806332cb6b0c146101f157806340d097c3146101fa57806342842e0e1461020d57600080fd5b806301ffc9a71461013c57806306fdde0314610164578063081812fc14610179578063095ea7b3146101a457806318160ddd146101b9575b600080fd5b61014f61014a36600461152a565b610302565b60405190151581526020015b60405180910390f35b61016c610313565b60405161015b9190611597565b61018c6101873660046115aa565b6103a5565b6040516001600160a01b03909116815260200161015b565b6101b76101b23660046115df565b6103cc565b005b6008545b60405190815260200161015b565b6101b76101d9366004611609565b6104e6565b6101bd6101ec3660046115df565b610517565b6101bd61271081565b6101b7610208366004611645565b6105ad565b6101b761021b366004611609565b61062c565b6101bd61022e3660046115aa565b610647565b61018c6102413660046115aa565b6106da565b6101bd610254366004611645565b61073a565b6101b76107c0565b600a546001600160a01b031661018c565b61016c6107d4565b6101b7610288366004611660565b6107e3565b6101b761029b3660046116b2565b6107ee565b61016c6102ae3660046115aa565b610826565b61014f6102c136600461178e565b6001600160a01b03918216600090815260056020908152604080832093909416825291909152205460ff1690565b6101b76102fd366004611645565b61089a565b600061030d82610913565b92915050565b606060008054610322906117c1565b80601f016020809104026020016040519081016040528092919081815260200182805461034e906117c1565b801561039b5780601f106103705761010080835404028352916020019161039b565b820191906000526020600020905b81548152906001019060200180831161037e57829003601f168201915b5050505050905090565b60006103b082610938565b506000908152600460205260409020546001600160a01b031690565b60006103d7826106da565b9050806001600160a01b0316836001600160a01b0316036104495760405162461bcd60e51b815260206004820152602160248201527f4552433732313a20617070726f76616c20746f2063757272656e74206f776e656044820152603960f91b60648201526084015b60405180910390fd5b336001600160a01b0382161480610465575061046581336102c1565b6104d75760405162461bcd60e51b815260206004820152603d60248201527f4552433732313a20617070726f76652063616c6c6572206973206e6f7420746f60448201527f6b656e206f776e6572206f7220617070726f76656420666f7220616c6c0000006064820152608401610440565b6104e18383610997565b505050565b6104f03382610a05565b61050c5760405162461bcd60e51b8152600401610440906117fb565b6104e1838383610a84565b60006105228361073a565b82106105845760405162461bcd60e51b815260206004820152602b60248201527f455243373231456e756d657261626c653a206f776e657220696e646578206f7560448201526a74206f6620626f756e647360a81b6064820152608401610440565b506001600160a01b03919091166000908152600660209081526040808320938352929052205490565b6105b5610bf5565b6127106105c1600b5490565b106106035760405162461bcd60e51b815260206004820152601260248201527113585e081cdd5c1c1b1e481c995858da195960721b6044820152606401610440565b600061060e600b5490565b905061061e600b80546001019055565b6106288282610c4f565b5050565b6104e1838383604051806020016040528060008152506107ee565b600061065260085490565b82106106b55760405162461bcd60e51b815260206004820152602c60248201527f455243373231456e756d657261626c653a20676c6f62616c20696e646578206f60448201526b7574206f6620626f756e647360a01b6064820152608401610440565b600882815481106106c8576106c8611848565b90600052602060002001549050919050565b6000818152600260205260408120546001600160a01b03168061030d5760405162461bcd60e51b8152602060048201526018602482015277115490cdcc8c4e881a5b9d985b1a59081d1bdad95b88125160421b6044820152606401610440565b60006001600160a01b0382166107a45760405162461bcd60e51b815260206004820152602960248201527f4552433732313a2061646472657373207a65726f206973206e6f7420612076616044820152683634b21037bbb732b960b91b6064820152608401610440565b506001600160a01b031660009081526003602052604090205490565b6107c8610bf5565b6107d26000610c69565b565b606060018054610322906117c1565b610628338383610cbb565b6107f83383610a05565b6108145760405162461bcd60e51b8152600401610440906117fb565b61082084848484610d89565b50505050565b606061083182610938565b600061084860408051602081019091526000815290565b905060008151116108685760405180602001604052806000815250610893565b8061087284610dbc565b60405160200161088392919061185e565b6040516020818303038152906040525b9392505050565b6108a2610bf5565b6001600160a01b0381166109075760405162461bcd60e51b815260206004820152602660248201527f4f776e61626c653a206e6577206f776e657220697320746865207a65726f206160448201526564647265737360d01b6064820152608401610440565b61091081610c69565b50565b60006001600160e01b0319821663780e9d6360e01b148061030d575061030d82610e4f565b6000818152600260205260409020546001600160a01b03166109105760405162461bcd60e51b8152602060048201526018602482015277115490cdcc8c4e881a5b9d985b1a59081d1bdad95b88125160421b6044820152606401610440565b600081815260046020526040902080546001600160a01b0319166001600160a01b03841690811790915581906109cc826106da565b6001600160a01b03167f8c5be1e5ebec7d5bd14f71427d1e84f3dd0314c0f7b2291e5b200ac8c7c3b92560405160405180910390a45050565b600080610a11836106da565b9050806001600160a01b0316846001600160a01b03161480610a5857506001600160a01b0380821660009081526005602090815260408083209388168352929052205460ff165b80610a7c5750836001600160a01b0316610a71846103a5565b6001600160a01b0316145b949350505050565b826001600160a01b0316610a97826106da565b6001600160a01b031614610abd5760405162461bcd60e51b81526004016104409061188d565b6001600160a01b038216610b1f5760405162461bcd60e51b8152602060048201526024808201527f4552433732313a207472616e7366657220746f20746865207a65726f206164646044820152637265737360e01b6064820152608401610440565b610b2c8383836001610e9f565b826001600160a01b0316610b3f826106da565b6001600160a01b031614610b655760405162461bcd60e51b81526004016104409061188d565b600081815260046020908152604080832080546001600160a01b03199081169091556001600160a01b0387811680865260038552838620805460001901905590871680865283862080546001019055868652600290945282852080549092168417909155905184937fddf252ad1be2c89b69c2b068fc378daa952ba7f163c4a11628f55a4df523b3ef91a4505050565b600a546001600160a01b031633146107d25760405162461bcd60e51b815260206004820181905260248201527f4f776e61626c653a2063616c6c6572206973206e6f7420746865206f776e65726044820152606401610440565b610628828260405180602001604052806000815250610eab565b600a80546001600160a01b038381166001600160a01b0319831681179093556040519116919082907f8be0079c531659141344cd1fd0a4f28419497f9722a3daafe3b4186f6b6457e090600090a35050565b816001600160a01b0316836001600160a01b031603610d1c5760405162461bcd60e51b815260206004820152601960248201527f4552433732313a20617070726f766520746f2063616c6c6572000000000000006044820152606401610440565b6001600160a01b03838116600081815260056020908152604080832094871680845294825291829020805460ff191686151590811790915591519182527f17307eab39ab6107e8899845ad3d59bd9653f200f220920489ca2b5937696c31910160405180910390a3505050565b610d94848484610a84565b610da084848484610ede565b6108205760405162461bcd60e51b8152600401610440906118d2565b60606000610dc983610fdf565b600101905060008167ffffffffffffffff811115610de957610de961169c565b6040519080825280601f01601f191660200182016040528015610e13576020820181803683370190505b5090508181016020015b600019016f181899199a1a9b1b9c1cb0b131b232b360811b600a86061a8153600a8504945084610e1d57509392505050565b60006001600160e01b031982166380ac58cd60e01b1480610e8057506001600160e01b03198216635b5e139f60e01b145b8061030d57506301ffc9a760e01b6001600160e01b031983161461030d565b610820848484846110b7565b610eb583836111eb565b610ec26000848484610ede565b6104e15760405162461bcd60e51b8152600401610440906118d2565b60006001600160a01b0384163b15610fd457604051630a85bd0160e11b81526001600160a01b0385169063150b7a0290610f22903390899088908890600401611924565b6020604051808303816000875af1925050508015610f5d575060408051601f3d908101601f19168201909252610f5a91810190611961565b60015b610fba573d808015610f8b576040519150601f19603f3d011682016040523d82523d6000602084013e610f90565b606091505b508051600003610fb25760405162461bcd60e51b8152600401610440906118d2565b805181602001fd5b6001600160e01b031916630a85bd0160e11b149050610a7c565b506001949350505050565b60008072184f03e93ff9f4daa797ed6e38ed64bf6a1f0160401b831061101e5772184f03e93ff9f4daa797ed6e38ed64bf6a1f0160401b830492506040015b6d04ee2d6d415b85acef8100000000831061104a576d04ee2d6d415b85acef8100000000830492506020015b662386f26fc10000831061106857662386f26fc10000830492506010015b6305f5e1008310611080576305f5e100830492506008015b612710831061109457612710830492506004015b606483106110a6576064830492506002015b600a831061030d5760010192915050565b60018111156111265760405162461bcd60e51b815260206004820152603560248201527f455243373231456e756d657261626c653a20636f6e7365637574697665207472604482015274185b9cd9995c9cc81b9bdd081cdd5c1c1bdc9d1959605a1b6064820152608401610440565b816001600160a01b0385166111825761117d81600880546000838152600960205260408120829055600182018355919091527ff3f7a9fe364faab93b216da50a3214154f22a0a2b415b23a84c8169e8b636ee30155565b6111a5565b836001600160a01b0316856001600160a01b0316146111a5576111a58582611384565b6001600160a01b0384166111c1576111bc81611421565b6111e4565b846001600160a01b0316846001600160a01b0316146111e4576111e484826114d0565b5050505050565b6001600160a01b0382166112415760405162461bcd60e51b815260206004820181905260248201527f4552433732313a206d696e7420746f20746865207a65726f20616464726573736044820152606401610440565b6000818152600260205260409020546001600160a01b0316156112a65760405162461bcd60e51b815260206004820152601c60248201527f4552433732313a20746f6b656e20616c7265616479206d696e746564000000006044820152606401610440565b6112b4600083836001610e9f565b6000818152600260205260409020546001600160a01b0316156113195760405162461bcd60e51b815260206004820152601c60248201527f4552433732313a20746f6b656e20616c7265616479206d696e746564000000006044820152606401610440565b6001600160a01b038216600081815260036020908152604080832080546001019055848352600290915280822080546001600160a01b0319168417905551839291907fddf252ad1be2c89b69c2b068fc378daa952ba7f163c4a11628f55a4df523b3ef908290a45050565b600060016113918461073a565b61139b919061197e565b6000838152600760205260409020549091508082146113ee576001600160a01b03841660009081526006602090815260408083208584528252808320548484528184208190558352600790915290208190555b5060009182526007602090815260408084208490556001600160a01b039094168352600681528383209183525290812055565b6008546000906114339060019061197e565b6000838152600960205260408120546008805493945090928490811061145b5761145b611848565b90600052602060002001549050806008838154811061147c5761147c611848565b60009182526020808320909101929092558281526009909152604080822084905585825281205560088054806114b4576114b461199f565b6001900381819060005260206000200160009055905550505050565b60006114db8361073a565b6001600160a01b039093166000908152600660209081526040808320868452825280832085905593825260079052919091209190915550565b6001600160e01b03198116811461091057600080fd5b60006020828403121561153c57600080fd5b813561089381611514565b60005b8381101561156257818101518382015260200161154a565b50506000910152565b60008151808452611583816020860160208601611547565b601f01601f19169290920160200192915050565b602081526000610893602083018461156b565b6000602082840312156115bc57600080fd5b5035919050565b80356001600160a01b03811681146115da57600080fd5b919050565b600080604083850312156115f257600080fd5b6115fb836115c3565b946020939093013593505050565b60008060006060848603121561161e57600080fd5b611627846115c3565b9250611635602085016115c3565b9150604084013590509250925092565b60006020828403121561165757600080fd5b610893826115c3565b6000806040838503121561167357600080fd5b61167c836115c3565b91506020830135801515811461169157600080fd5b809150509250929050565b634e487b7160e01b600052604160045260246000fd5b600080600080608085870312156116c857600080fd5b6116d1856115c3565b93506116df602086016115c3565b925060408501359150606085013567ffffffffffffffff8082111561170357600080fd5b818701915087601f83011261171757600080fd5b8135818111156117295761172961169c565b604051601f8201601f19908116603f011681019083821181831017156117515761175161169c565b816040528281528a602084870101111561176a57600080fd5b82602086016020830137600060208483010152809550505050505092959194509250565b600080604083850312156117a157600080fd5b6117aa836115c3565b91506117b8602084016115c3565b90509250929050565b600181811c908216806117d557607f821691505b6020821081036117f557634e487b7160e01b600052602260045260246000fd5b50919050565b6020808252602d908201527f4552433732313a2063616c6c6572206973206e6f7420746f6b656e206f776e6560408201526c1c881bdc88185c1c1c9bdd9959609a1b606082015260800190565b634e487b7160e01b600052603260045260246000fd5b60008351611870818460208801611547565b835190830190611884818360208801611547565b01949350505050565b60208082526025908201527f4552433732313a207472616e736665722066726f6d20696e636f72726563742060408201526437bbb732b960d91b606082015260800190565b60208082526032908201527f4552433732313a207472616e7366657220746f206e6f6e20455243373231526560408201527131b2b4bb32b91034b6b83632b6b2b73a32b960711b606082015260800190565b6001600160a01b03858116825284166020820152604081018390526080606082018190526000906119579083018461156b565b9695505050505050565b60006020828403121561197357600080fd5b815161089381611514565b8181038181111561030d57634e487b7160e01b600052601160045260246000fd5b634e487b7160e01b600052603160045260246000fdfea26469706673582212207211203c6f0bf388844005359744a5c32f8f02e0792f64bfac415cabe8d981bf64736f6c63430008130033",
  "linkReferences": {},
  "deployedLinkReferences": {}
}