{
  "_format": "hh-sol-artifact-1",
  "contractName": "SimpleCustomDAO",
  "sourceName": "contracts/SimpleCustomDAO.sol",
  "abi": [
    {
      "inputs": [],
      "stateMutability": "nonpayable",
      "type": "constructor"
    },
    {
      "inputs": [],
      "name": "getOwner",
      "outputs": [
        {
          "internalType": "address",
          "name": "",
          "type": "address"
        }
      ],
      "stateMutability": "view",
      "type": "function"
    },
    {
      "inputs": [],
      "name": "owner",
      "outputs": [
        {
          "internalType": "address",
          "name": "",
          "type": "address"
        }
      ],
      "stateMutability": "view",
      "type": "function"
    }
  ],
  "bytecode": "0x6080604052348015600f57600080fd5b50600080546001600160a01b0319163317905560a8806100306000396000f3fe6080604052348015600f57600080fd5b506004361060325760003560e01c8063893d20e81460375780638da5cb5b146060575b600080fd5b6000546001600160a01b03165b6040516001600160a01b03909116815260200160405180910390f35b6000546044906001600160a01b03168156fea264697066735822122058b4bc0fc5064463a401eb3a4d37915d3fe3e8c2ae5339fdf83896fb3758005e64736f6c63430008130033",
  "linkReferences": {},
  "deployedLinkReferences": {}
}