{
  "_format": "hh-sol-artifact-1",
  "contractName": "SimpleCustomDAO",
  "sourceName": "contracts/SimpleCustomDAO.sol",
  "abi": [
    {
      "inputs": [
        {
          "internalType": "address",
          "name": "_hgpTokenAddress",
          "type": "address"
        }
      ],
      "stateMutability": "nonpayable",
      "type": "constructor"
    },
    {
      "anonymous": false,
      "inputs": [
        {
          "indexed": true,
          "internalType": "address",
          "name": "previousOwner",
          "type": "address"
        },
        {
          "indexed": true,
          "internalType": "address",
          "name": "newOwner",
          "type": "address"
        }
      ],
      "name": "OwnershipTransferred",
      "type": "event"
    },
    {
      "anonymous": false,
      "inputs": [
        {
          "indexed": true,
          "internalType": "uint256",
          "name": "proposalId",
          "type": "uint256"
        }
      ],
      "name": "ProposalCanceled",
      "type": "event"
    },
    {
      "anonymous": false,
      "inputs": [
        {
          "indexed": true,
          "internalType": "uint256",
          "name": "id",
          "type": "uint256"
        },
        {
          "indexed": false,
          "internalType": "string",
          "name": "title",
          "type": "string"
        },
        {
          "indexed": true,
          "internalType": "address",
          "name": "proposer",
          "type": "address"
        },
        {
          "indexed": false,
          "internalType": "uint256",
          "name": "voteStartTime",
          "type": "uint256"
        },
        {
          "indexed": false,
          "internalType": "uint256",
          "name": "voteEndTime",
          "type": "uint256"
        }
      ],
      "name": "ProposalCreated",
      "type": "event"
    },
    {
      "anonymous": false,
      "inputs": [
        {
          "indexed": true,
          "internalType": "uint256",
          "name": "proposalId",
          "type": "uint256"
        }
      ],
      "name": "ProposalExecuted",
      "type": "event"
    },
    {
      "anonymous": false,
      "inputs": [
        {
          "indexed": false,
          "internalType": "uint256",
          "name": "newPercentage",
          "type": "uint256"
        }
      ],
      "name": "QuorumPercentageUpdated",
      "type": "event"
    },
    {
      "anonymous": false,
      "inputs": [
        {
          "indexed": true,
          "internalType": "uint256",
          "name": "proposalId",
          "type": "uint256"
        },
        {
          "indexed": true,
          "internalType": "address",
          "name": "voter",
          "type": "address"
        },
        {
          "indexed": false,
          "internalType": "bool",
          "name": "support",
          "type": "bool"
        },
        {
          "indexed": false,
          "internalType": "uint256",
          "name": "voteWeight",
          "type": "uint256"
        }
      ],
      "name": "Voted",
      "type": "event"
    },
    {
      "anonymous": false,
      "inputs": [
        {
          "indexed": false,
          "internalType": "uint256",
          "name": "newDuration",
          "type": "uint256"
        }
      ],
      "name": "VotingPeriodUpdated",
      "type": "event"
    },
    {
      "inputs": [],
      "name": "PROPOSAL_CREATION_THRESHOLD",
      "outputs": [
        {
          "internalType": "uint256",
          "name": "",
          "type": "uint256"
        }
      ],
      "stateMutability": "view",
      "type": "function"
    },
    {
      "inputs": [],
      "name": "QUORUM_PERCENTAGE",
      "outputs": [
        {
          "internalType": "uint256",
          "name": "",
          "type": "uint256"
        }
      ],
      "stateMutability": "view",
      "type": "function"
    },
    {
      "inputs": [],
      "name": "VOTING_PERIOD_DURATION",
      "outputs": [
        {
          "internalType": "uint256",
          "name": "",
          "type": "uint256"
        }
      ],
      "stateMutability": "view",
      "type": "function"
    },
    {
      "inputs": [
        {
          "internalType": "string",
          "name": "_title",
          "type": "string"
        },
        {
          "internalType": "string",
          "name": "_description",
          "type": "string"
        }
      ],
      "name": "createProposal",
      "outputs": [],
      "stateMutability": "nonpayable",
      "type": "function"
    },
    {
      "inputs": [
        {
          "internalType": "uint256",
          "name": "_proposalId",
          "type": "uint256"
        }
      ],
      "name": "executeProposal",
      "outputs": [],
      "stateMutability": "nonpayable",
      "type": "function"
    },
    {
      "inputs": [
        {
          "internalType": "uint256",
          "name": "_proposalId",
          "type": "uint256"
        }
      ],
      "name": "getProposal",
      "outputs": [
        {
          "internalType": "uint256",
          "name": "id",
          "type": "uint256"
        },
        {
          "internalType": "string",
          "name": "title",
          "type": "string"
        },
        {
          "internalType": "string",
          "name": "description",
          "type": "string"
        },
        {
          "internalType": "address",
          "name": "proposer",
          "type": "address"
        },
        {
          "internalType": "uint256",
          "name": "voteStartTime",
          "type": "uint256"
        },
        {
          "internalType": "uint256",
          "name": "voteEndTime",
          "type": "uint256"
        },
        {
          "internalType": "uint256",
          "name": "votesFor",
          "type": "uint256"
        },
        {
          "internalType": "uint256",
          "name": "votesAgainst",
          "type": "uint256"
        },
        {
          "internalType": "bool",
          "name": "executed",
          "type": "bool"
        },
        {
          "internalType": "enum SimpleCustomDAO.ProposalState",
          "name": "currentState",
          "type": "uint8"
        }
      ],
      "stateMutability": "view",
      "type": "function"
    },
    {
      "inputs": [
        {
          "internalType": "uint256",
          "name": "_proposalId",
          "type": "uint256"
        }
      ],
      "name": "getProposalState",
      "outputs": [
        {
          "internalType": "enum SimpleCustomDAO.ProposalState",
          "name": "",
          "type": "uint8"
        }
      ],
      "stateMutability": "view",
      "type": "function"
    },
    {
      "inputs": [
        {
          "internalType": "uint256",
          "name": "_proposalId",
          "type": "uint256"
        },
        {
          "internalType": "address",
          "name": "_user",
          "type": "address"
        }
      ],
      "name": "hasUserVoted",
      "outputs": [
        {
          "internalType": "bool",
          "name": "",
          "type": "bool"
        }
      ],
      "stateMutability": "view",
      "type": "function"
    },
    {
      "inputs": [],
      "name": "hgpToken",
      "outputs": [
        {
          "internalType": "contract IERC20",
          "name": "",
          "type": "address"
        }
      ],
      "stateMutability": "view",
      "type": "function"
    },
    {
      "inputs": [],
      "name": "nextProposalId",
      "outputs": [
        {
          "internalType": "uint256",
          "name": "",
          "type": "uint256"
        }
      ],
      "stateMutability": "view",
      "type": "function"
    },
    {
      "inputs": [],
      "name": "owner",
      "outputs": [
        {
          "internalType": "address",
          "name": "",
          "type": "address"
        }
      ],
      "stateMutability": "view",
      "type": "function"
    },
    {
      "inputs": [
        {
          "internalType": "uint256",
          "name": "",
          "type": "uint256"
        }
      ],
      "name": "proposals",
      "outputs": [
        {
          "internalType": "uint256",
          "name": "id",
          "type": "uint256"
        },
        {
          "internalType": "string",
          "name": "title",
          "type": "string"
        },
        {
          "internalType": "string",
          "name": "description",
          "type": "string"
        },
        {
          "internalType": "address",
          "name": "proposer",
          "type": "address"
        },
        {
          "internalType": "uint256",
          "name": "voteStartTime",
          "type": "uint256"
        },
        {
          "internalType": "uint256",
          "name": "voteEndTime",
          "type": "uint256"
        },
        {
          "internalType": "uint256",
          "name": "votesFor",
          "type": "uint256"
        },
        {
          "internalType": "uint256",
          "name": "votesAgainst",
          "type": "uint256"
        },
        {
          "internalType": "bool",
          "name": "executed",
          "type": "bool"
        },
        {
          "internalType": "bool",
          "name": "exists",
          "type": "bool"
        }
      ],
      "stateMutability": "view",
      "type": "function"
    },
    {
      "inputs": [
        {
          "internalType": "uint256",
          "name": "_newThreshold",
          "type": "uint256"
        }
      ],
      "name": "setProposalCreationThreshold",
      "outputs": [],
      "stateMutability": "nonpayable",
      "type": "function"
    },
    {
      "inputs": [
        {
          "internalType": "uint256",
          "name": "_newPercentage",
          "type": "uint256"
        }
      ],
      "name": "setQuorumPercentage",
      "outputs": [],
      "stateMutability": "nonpayable",
      "type": "function"
    },
    {
      "inputs": [
        {
          "internalType": "uint256",
          "name": "_newDuration",
          "type": "uint256"
        }
      ],
      "name": "setVotingPeriod",
      "outputs": [],
      "stateMutability": "nonpayable",
      "type": "function"
    },
    {
      "inputs": [
        {
          "internalType": "address",
          "name": "newOwner",
          "type": "address"
        }
      ],
      "name": "transferOwnership",
      "outputs": [],
      "stateMutability": "nonpayable",
      "type": "function"
    },
    {
      "inputs": [
        {
          "internalType": "uint256",
          "name": "_proposalId",
          "type": "uint256"
        },
        {
          "internalType": "bool",
          "name": "_support",
          "type": "bool"
        }
      ],
      "name": "vote",
      "outputs": [],
      "stateMutability": "nonpayable",
      "type": "function"
    }
  ],
  "bytecode": "0x60a0346100fb57601f6113db38819003918201601f19168301916001600160401b03831184841017610100578084926020946040528339810103126100fb57516001600160a01b038116908190036100fb57683635c9adc5dea000006003556203f480600455600460055580156100b757608052600080546001600160a01b0319163317905560016002556040516112c4908161011782396080518181816103720152818161075d01528181610b8d01526111ae0152f35b606460405162461bcd60e51b815260206004820152602060248201527f48475020746f6b656e20616464726573732063616e6e6f74206265207a65726f6044820152fd5b600080fd5b634e487b7160e01b600052604160045260246000fdfe6080604052600436101561001257600080fd5b60003560e01c8063013cf08b14610e4b5780630d61b51914610ca65780632ab09d1414610c8857806332f6a1dc14610bbc578063657b1d9414610b7757806365e481e2146106ed57806382a3f98d146106cf578063830b4290146106b15780638da5cb5b146106885780639080936f1461065b578063afe8ff891461062d578063c7f758a814610548578063c9d27afe146102df578063dc296ae114610276578063ea0217cf146101c1578063ee8a7c15146101a35763f2fde38b146100d757600080fd5b3461019e57602036600319011261019e576004356001600160a01b038181169182900361019e5760005490811690610110823314611093565b821561014d576001600160a01b031916821760009081557f8be0079c531659141344cd1fd0a4f28419497f9722a3daafe3b4186f6b6457e09080a3005b60405162461bcd60e51b8152602060048201526024808201527f4e6577206f776e65722063616e6e6f7420626520746865207a65726f206164646044820152637265737360e01b6064820152608490fd5b600080fd5b3461019e57600036600319011261019e576020600554604051908152f35b3461019e57602036600319011261019e576004356101ea60018060a01b03600054163314611093565b8015610221576020817f651c77f42613a075437aa794c44471e3abc3a661956a67aaee165bb7396974aa92600455604051908152a1005b60405162461bcd60e51b815260206004820152602760248201527f566f74696e6720706572696f64206d7573742062652067726561746572207468604482015266616e207a65726f60c81b6064820152608490fd5b3461019e57604036600319011261019e576024356001600160a01b0381169081900361019e5760099060043560005260016020526040600020906102c360ff600884015460081c166110f6565b60005201602052602060ff604060002054166040519015158152f35b3461019e57604036600319011261019e5760248035801515916004359183810361019e578260005260209060018252604060002061032660ff600883015460081c166110f6565b61032f85611142565b6006811015610533576001036104e05760098101913360005282845260ff6040600020541661049c576040516370a0823160e01b815233600482015294848682817f00000000000000000000000000000000000000000000000000000000000000006001600160a01b03165afa95861561049057600096610461575b508515610425575015610410576006016103c68482546110e9565b90555b3360005281526040600020600160ff198254161790556040519384528301527f7c2de587c00d75474a0c6c6fa96fd3b45dc974cd4e8a75f712bb84c950dce1b560403393a3005b60070161041e8482546110e9565b90556103c9565b8460166064926040519262461bcd60e51b84526004840152820152754e6f204847502062616c616e636520746f20766f746560501b6044820152fd5b9095508481813d8311610489575b6104798183610f50565b8101031261019e575194886103ab565b503d61046f565b6040513d6000823e3d90fd5b60405162461bcd60e51b815260048101859052601e818701527f416c726561647920766f746564206f6e20746869732070726f706f73616c00006044820152606490fd5b60405162461bcd60e51b8152600481018490526026818601527f566f74696e67206973206e6f742061637469766520666f7220746869732070726044820152651bdc1bdcd85b60d21b6064820152608490fd5b84634e487b7160e01b60005260216004526000fd5b3461019e57602036600319011261019e5760043580600052600160205260406000209060088201549061058060ff8360081c166110f6565b6106298360ff81549460018060a01b0360038401541694600484015460058501546006860154916105fb6105d060026105c960016105c260078d015499611142565b9b01610f72565b9d01610f72565b6105ed6040519d8e9d8e528d610140908160208201520190611018565b8c810360408e015290611018565b9860608b015260808a015260a089015260c088015260e0870152161515610100850152610120840190611086565b0390f35b3461019e57602036600319011261019e5761065360018060a01b03600054163314611093565b600435600355005b3461019e57602036600319011261019e576020610679600435611142565b6106866040518092611086565bf35b3461019e57600036600319011261019e576000546040516001600160a01b039091168152602090f35b3461019e57600036600319011261019e576020600354604051908152f35b3461019e57600036600319011261019e576020600454604051908152f35b3461019e57604036600319011261019e5760043567ffffffffffffffff811161019e5761071e903690600401611058565b9060243567ffffffffffffffff811161019e5761073f903690600401611058565b6040516370a0823160e01b81523360048201529192916020816024817f00000000000000000000000000000000000000000000000000000000000000006001600160a01b03165afa90811561049057600091610b45575b5060035411610af457600254926000198414610ade57600184016002556107bf600454426110e9565b9184600052600160205260406000209185835567ffffffffffffffff8711610a08576107ee6001840154610f16565b601f8111610a97575b50866000601f8211600114610a2957600091610a1e575b508760011b906000198960031b1c19161760018401555b67ffffffffffffffff8211610a08576108416002840154610f16565b601f81116109c1575b50600090601f831160011461092d5791807f331b791e5a0526c6d6f17a46c1d4139542c8579c245d9f8082d0b1462942f4fa96959492600894600092610922575b50508160011b916000199060031b1c19161760028201555b60038101336bffffffffffffffffffffffff60a01b82541617905542600482015582600582015560006006820155600060078201550161010061ffff19825416179055846040519260608452816060850152608084013760006080868401015242602083015260408201526080813395601f80199101168101030190a3005b01359050898061088b565b601f198316916002850160005260206000209260005b8181106109a957509260019285926008967f331b791e5a0526c6d6f17a46c1d4139542c8579c245d9f8082d0b1462942f4fa9a9998961061098f575b505050811b0160028201556108a3565b0135600019600384901b60f8161c1916905589808061097f565b91936020600181928787013581550195019201610943565b600284016000526020600020601f840160051c810160208510610a01575b601f830160051c820181106109f557505061084a565b600081556001016109df565b50806109df565b634e487b7160e01b600052604160045260246000fd5b90508501358861080e565b90506001840160005260206000209060005b601f198a168110610a7f575088601f19811610610a65575b5050600187811b016001840155610825565b86013560001960038a901b60f8161c191690558780610a53565b9091602060018192858b013581550193019101610a3b565b600184016000526020600020601f890160051c810160208a10610ad7575b601f830160051c82018110610acb5750506107f7565b60008155600101610ab5565b5080610ab5565b634e487b7160e01b600052601160045260246000fd5b60405162461bcd60e51b815260206004820152602360248201527f496e73756666696369656e742048475020746f206372656174652070726f706f6044820152621cd85b60ea1b6064820152608490fd5b90506020813d602011610b6f575b81610b6060209383610f50565b8101031261019e575185610796565b3d9150610b53565b3461019e57600036600319011261019e576040517f00000000000000000000000000000000000000000000000000000000000000006001600160a01b03168152602090f35b3461019e57602036600319011261019e57600435610be560018060a01b03600054163314611093565b80151580610c7d575b15610c24576020817ff45a9754991a0d077576b4ef07eab4b29e13f5e557e5a742f5351fef792421ab92600555604051908152a1005b60405162461bcd60e51b815260206004820152602b60248201527f51756f72756d2070657263656e74616765206d7573742062652062657477656560448201526a06e203120616e64203130360ac1b6064820152608490fd5b506064811115610bee565b3461019e57600036600319011261019e576020600254604051908152f35b3461019e57602036600319011261019e57600054600435906001600160a01b03163303610de05780600052600160205260086040600020018054610cef60ff8260081c166110f6565b610cf883611142565b6006811015610dca57600203610d855760ff8116610d405760ff191660011790557f712ae1383f79ac853f8d882153778e0260ef8f03b504e2866e0593e04d2b291f600080a2005b60405162461bcd60e51b815260206004820152601960248201527f50726f706f73616c20616c7265616479206578656375746564000000000000006044820152606490fd5b60405162461bcd60e51b815260206004820152601f60248201527f50726f706f73616c206e6f7420696e20537563636565646564207374617465006044820152606490fd5b634e487b7160e01b600052602160045260246000fd5b60405162461bcd60e51b815260206004820152603f60248201527f4f6e6c79206f776e6572206f7220612070726976696c6567656420616464726560448201527f73732063616e206578656375746520696e20746869732064656d6f2044414f006064820152608490fd5b3461019e57602036600319011261019e57600435600052600160205260406000208054610e7a60018301610f72565b9160ff610e8960028301610f72565b60018060a01b036003840154169260048101546005820154600683015491610ee16008600786015495015495610ed36040519b8c9b8c5260208c61014091829101528c0190611018565b908a820360408c0152611018565b966060890152608088015260a087015260c086015260e0850152818116151561010085015260081c1615156101208301520390f35b90600182811c92168015610f46575b6020831014610f3057565b634e487b7160e01b600052602260045260246000fd5b91607f1691610f25565b90601f8019910116810190811067ffffffffffffffff821117610a0857604052565b9060405191826000825492610f8684610f16565b908184526001948581169081600014610ff55750600114610fb2575b5050610fb092500383610f50565b565b9093915060005260209081600020936000915b818310610fdd575050610fb093508201013880610fa2565b85548884018501529485019487945091830191610fc5565b915050610fb094506020925060ff191682840152151560051b8201013880610fa2565b919082519283825260005b848110611044575050826000602080949584010152601f8019910116010190565b602081830181015184830182015201611023565b9181601f8401121561019e5782359167ffffffffffffffff831161019e576020838186019501011161019e57565b906006821015610dca5752565b1561109a57565b60405162461bcd60e51b815260206004820152602160248201527f4f6e6c79206f776e65722063616e2063616c6c20746869732066756e6374696f6044820152603760f91b6064820152608490fd5b91908201809211610ade57565b156110fd57565b60405162461bcd60e51b815260206004820152601760248201527f50726f706f73616c20646f6573206e6f742065786973740000000000000000006044820152606490fd5b600090815260016020526040812060ff6008820154611165828260081c166110f6565b16611287576004810154421061128357600581015442111561127c576007600682015491015461119581836110e9565b6040516318160ddd60e01b8152939092906020856004817f00000000000000000000000000000000000000000000000000000000000000006001600160a01b03165afa94851561126f578195611238575b50600554948581029581870414901517156112245750119182611215575b50501561121057600290565b600390565b60649192500411153880611204565b634e487b7160e01b81526011600452602490fd5b9094506020813d8211611267575b8161125360209383610f50565b81010312611263575193386111e6565b8480fd5b3d9150611246565b50604051903d90823e3d90fd5b5050600190565b5090565b505060049056fea26469706673582212202e0be2e31271ba6faa257bbd6569fd6c40de01378270543964863bb6cbf8727a64736f6c63430008140033",
  "linkReferences": {},
  "deployedLinkReferences": {}
}